:0A00000002093BEFF58AEEF58C22B1
:10000B00020A4CE5082403F582E43400F583E0058D
:10001B000822900000300703900003E475F00112F2
:10002B00057B0205232000E97F2ED2008018EF54B8
:10003B000F2490D43440D4FF30040BEF24BFB41AF8
:10004B000050032461FFE50960021509050CE50C5E
:10005B007002050B30070E900000E475F0011205DD
:10006B007BEF020569020A877403D2078003E4C29F
:10007B0007F508900000120592E4F509F50BF50C55
:10008B00E50960077F2012005180F5750AFFC20158
:10009B00C200C202C203C205C206C20812001DFF83
:1000AB00700D3007057F00120062AF0CAE0B22B44F
:1000BB00255FC2D5C20412001DFF24D0B40A005024
:1000CB001A75F00A780930D50508B6FF0106C6A4E3
:1000DB0026F620D5047002D20380D924CFB41A009F
:1000EB00EF5004C2E5D204020263D20180C6D200F3
:1000FB0080C0D20280BCD2D580BAD20580B47F201A
:10010B001200512002077401B5090040F112000ED4
:10011B00FF12005102008BD208D206809512000EFE
:10012B00FB12000EFA12000EF94A4B700679347A64
:10013B00037BFF20022EE509602A7E008E827583E9
:10014B000012053C60060EEE650A70F0C2D5EBC0DE
:10015B00E0EAC0E0E9C0E0EE1202AAD0E0F9D0E09C
:10016B00FAD0E0FB120523FF60AAEBC0E0EAC0E087
:10017B00E9C0E0120051D0E02401F9D0E03400FADC
:10018B00D0E0FBE50A0460DCD50AD980877BFF7AD7
:10019B000279A6D202809C791080027908C206C22D
:1001AB00088008D2D5790A8004790AC2D5E50A04F9
:1001BB007002F50AE4FAFDFEFF12000EFC7B08202C
:1001CB00011312000EFD7B1030000A12000EFE12FE
:1001DB00000EFF7B20EC3382D592D55013C3E43055
:1001EB0000069FFFE49EFEE42001039DFDE49CFCC2
:1001FB00E4CBF8C201EC700CCFCECDCCE824F8F8F0
:10020B0070F38017C3EF33FFEE33FEED33FDEC33AA
:10021B00FCEB33FB994002FB0FD8E9EB300105F8FF
:10022B00D0E0C448B201C0E00AEC4D4E4F78207BC1
:10023B000070C2EAB50A0040BCC0E01202ACD0F0BC
:10024B00D0E0200104C4C0E0C4B201C0F012003AF7
:10025B00D0F0D5F0EB02008B12059B01285301A2C5
:10026B005800F94C00F54201A64F01AE4401AE49CE
:10027B00010E4301B4550198460198450198470377
:10028B00545000FD2D01012E01242B0105230122C9
:10029B0020033D2A00BD480000011C3F3F3F007971
:1002AB000AA2D5200314300509B910020404B908B9
:1002BB000104A2D52006025001042002689202B567
:1002CB0009005034C0E07F203003197F30A2027246
:1002DB00067205500F120303C202C206C205C20802
:1002EB007F30800F300503E9C0E012005130050369
:1002FB00D0E0F9D0E0B509CC3005177F30B9100C40
:10030B001200517F583004077F788003B90803121D
:10031B0000513002057F2D0200517F202008F87F0D
:10032B002B2006F322920280CF286E756C6C29006D
:10033B00D20112000E3001F8C201780930D5010844
:10034B00F60200BD2D5043495812000E2403B4058C
:10035B00004001E490034F93120042743A120042A2
:10036B00D2037509040201A2E88FF0A4CC8BF0A490
:10037B002CFCE98EF0A42CFC8AF0EDA42CFCEA8E6C
:10038B00F0A4CDA8F08BF0A42DCC3825F0FDE98F8F
:10039B00F0A42CCD35F0FCEB8EF0A4FEA9F0EB8F86
:1003AB00F0A4CFC5F02ECD39FEE43CFCEAA42DCE53
:1003BB0035F0FDE43CFC2275F008758200EF2FFF51
:1003CB00EE33FECD33CDCC33CCC58233C5829BED22
:1003DB009AEC99E58298400CF582EE9BFEED9AFD26
:1003EB00EC99FC0FD5F0D6E4CEFBE4CDFAE4CCF9D6
:1003FB00A88222B800C1B90059BA002DEC8BF08449
:10040B00CFCECDFCE5F0CBF97818EF2FFFEE33FE16
:10041B00ED33FDEC33FCEB33FB10D703994004EBCE
:10042B0099FB0FD8E5E4F9FA227818EF2FFFEE339A
:10043B00FEED33FDEC33FCC933C910D7059BE99AAC
:10044B004007EC9BFCE99AF90FD8E0E4C9FAE4CC3D
:10045B00FB2275F010EF2FFFEE33FEED33FDCC33A7
:10046B00CCC833C810D7079BEC9AE899400AED9B90
:10047B00FDEC9AFCE899F80FD5F0DAE4CDFBE4CC6F
:10048B00FAE4C8F922EB9FF5F0EA9E42F0E99D42AF
:10049B00F0EC6480C864809845F022E8600FECC3F0
:1004AB0013FCED13FDEE13FEEF13FFD8F122ECF06E
:1004BB00A3EDF0A3EEF0A3EFF022A8828583F0D09A
:1004CB0083D0821204DC1204DC1204DC1204DCE4A0
:1004DB0073E493A3C583C5F0C583C8C582C8F0A3D5
:1004EB00C583C5F0C583C8C582C822D083D082F826
:1004FB00E4937012740193700DA3A393F87401939A
:10050B00F5828883E473740293B5F00674039368E1
:10051B0060E9A3A3A3A380D8BB010689828A83E0E9
:10052B00225002E722BBFE02E32289828A83E493F4
:10053B0022BB010CE58229F582E5833AF583E022A3
:10054B005006E92582F8E622BBFE06E92582F8E291
:10055B0022E58229F582E5833AF583E49322BB01F8
:10056B000689828A83F0225002F722BBFE01F32216
:10057B00F8E0FBA3A3E0F925F0F0E5821582700209
:10058B001583E0FA38F022EBF0A3EAF0A3E9F022AE
:10059B00D083D082F8E4937012740193700DA3A3EF
:1005AB0093F8740193F5828883E473740293686003
:1005BB00EFA3A3A380DF9000001204B9900004E026
:1005CB0014605E1470030206D724026003020769ED
:1005DB00759850438920438780438E10A2AF920CAD
:1005EB00C2AF75C7AA75C755E4F591A20C92AF536C
:1005FB00C4DF7B10FAF9F8900000E0FCA3E0FDA348
:10060B00E0FEA3E0FF1203FE900005E0F8A3E0F983
:10061B00A3E0FAA3E0FB1203FEEFF404F58DD28EF8
:10062B002275985043878053C4F8A2AF920CC2AF87
:10063B0075C7AA75C755E4F591A20C92AF43C420B8
:10064B007B10FAF9F8900000E0FCA3E0FDA3E0FEBC
:10065B00A3E0FF1203FE900005E0F8A3E0F9A3E08E
:10066B00FAA3E0FB1203FEC3E49FFFE49EFE7401BA
:10067B009DFDE49CFC78081204A68FC6E47B10FA5F
:10068B00F9F8900000E0FCA3E0FDA3E0FEA3E0FF7F
:10069B001203FE900005E0F8A3E0F9A3E0FAA3E053
:1006AB00FB1203FEC3E49FFFE49EFE74019DFDE479
:1006BB009CFCEFE48FC5A2AF920CC2AF75C7AA75B5
:1006CB00C755F591A20C92AF43C4082275F850752B
:1006DB00C480E47B10FAF9F8900000E0FCA3E0FD85
:1006EB00A3E0FEA3E0FF1203FE900005E0F8A3E0F9
:1006FB00F9A3E0FAA3E0FB1203FEC3E49FFFE49E21
:10070B00FE74019DFDE49CFC78081204A68FC6E4E0
:10071B007B10FAF9F8900000E0FCA3E0FDA3E0FEEB
:10072B00A3E0FF1203FE900005E0F8A3E0F9A3E0BD
:10073B00FAA3E0FB1203FEC3E49FFFE49EFE7401E9
:10074B009DFDE49CFCEFE48FC5A2AF920CC2AF758C
:10075B00C7AA75C755F591A20C92AF43C40822A244
:10076B00AF920CC2AF75C7AA75C755439F01A20CB8
:10077B0092AFE4F591EF24F9600C14600E24027033
:10078B000D75A638800875A630800375A630E4F584
:10079B00A775AF04A2AF920CC2AF75C7AA75C755A8
:1007AB0043A401A20C92AF85AE0805A6A2AF920C92
:1007BB00C2AF75C7AA75C75543A401A20C92AF85EA
:1007CB00AE09EF24F8600302085CE50825E0FFE5BD
:1007DB000954012FFF54C0F50BEF543FF50A74F287
:1007EB002FFF75AF0C75A601E4F5A7A2AF920CC253
:1007FB00AFA2AF920CC2AF75C7AA75C75543AA403B
:10080B00A20C92AF75C7AA75C75543A401A20C924F
:10081B00AFAEAEEE644B600EAEAEEE64526007AEA2
:10082B00AEEE64537026E50AC3940F748094805027
:10083B0017E50BFD6440600AED64806005ED64C054
:10084B00700A74F22FFF800474FC2FFFEFC313F5B3
:10085B000875C7AA75C75585088475C7AA75C75586
:10086B00850985A2AF920CC2AF75C7AA75C7555340
:10087B009FFEA20C92AF2290002EE0FEA3E0FF9011
:10088B000028EEF0A3EFF090002CE0FCA3E0FDC3FA
:10089B00EF9DFFEE9CFE90002AF0A3EFF0C394E8CF
:1008AB00EE9403406DA292B392927BFF7A0A79BDCC
:1008BB0090002EE0FEA3E0FF900003EEF0A3EFF01C
:1008CB00900028E0FDA3E0900005CDF0A3EDF090A3
:1008DB00002CE0A3E0FD900007ECF0A3EDF0C3EFDC
:1008EB009DFFEE9CA3F0A3EFF0120079900028E09F
:1008FB00FEA3E0FF90002CEEF0A3EFF07BFF7A0A53
:10090B0079F6900003EEF0A3EFF0120079A292B308
:10091B009292900028E0FEA3E0FFE4FCFDFB7AFA44
:10092B00F9F8C31204905007E490002EF0A3F022C4
:10093B00787FE4F6D8FD9000007FFF7E04E4F0A3FF
:10094B00DFFCDEFA7581210209900209D5E493A33D
:10095B00F8E493A34003F68001F208DFF48029E466
:10096B0093A3F85407240CC8C333C4540F4420C8B2
:10097B00834004F456800146F6DFE4800B01020449
:10098B000810204080900AAEE47E019360BCA3FF68
:10099B00543F30E509541FFEE493A360010ECF547E
:1009AB00C025E060A840B8E493A3FAE493A3F8E46D
:1009BB0093A3C8C582C8CAC583CAF0A3C8C582C8D9
:1009CB00CAC583CADFE9DEE780BE7F0612076AA2CB
:1009DB00AF920CC2AF75C7AA75C755E4F591A20CBF
:1009EB0092AF53B3FB43B404A2AF920CC2AF75C723
:1009FB00AA75C755F591A20C92AF53B1BF43B24044
:100A0B0090000404F0A31204C50001C2007F007E15
:100A1B00367D6E7C011205C1D299D2095389F04300
:100A2B008901538EF77F307EF8120003D2A9D28C46
:100A3B00D2AF7BFF7A0B790412007912088280FB0C
:100A4B0022C0E0C083C082C0D075D000C006C007F2
:100A5B00C091C28C7F307EF8120003C28DD28C9075
:100A6B00002FE004F0700690002EE004F0D091D03F
:100A7B0007D006D0D0D082D083D0E032EFB40A07B3
:100A8B00740D120A92740A309811A899B8130CC2FB
:100A9B00983098FDA899C298B811F63099FDC29973
:100AAB00F59922420028000042002C0000C109C128
:100ABB000A007469636B313674696D65726D53200E
:100ACB003A20257520092054656D70203A20257534
:100ADB00200920437472203A20257520092044698F
:100AEB006666203A202575200920004E6577204345
:100AFB007472203A2025750A0050726F6A65637410
:0B0B0B0020537461727465640D0A00D1
:00000001FF
